:100000000C942A000C9434000C9434000C943400AA
:100010000C9434000C9434000C9434000C94340090
:100020000C9434000C9434000C9434000C94340080
:100030000C9434000C9434000C9434000C94340070
:100040000C9434000C9434000C9434000C94340060
:100050000C94340011241FBECFE5D4E0DEBFCDBF29
:100060000E9440000C9463000C9400008CE089B95D
:1000700010BC549A08955F9BFECF8CB190E0089518
:100080008FEF87BB8CE089B910BC549A84ED90E364
:100090000197F1F749E036E025E09AE05F9BFECF5B
:1000A0008CB1873711F498BBF9CF833711F428BB93
:1000B000F5CF813611F438BBF1CF843611F448BB4B
:0A00C000EDCF18BAEBCFF894FFCF94
:00000001FF
